{
  "_format": "hh-sol-artifact-1",
  "contractName": "SOVRCreditBridgePOS",
  "sourceName": "contracts/SOVRCreditBridgePOS.sol",
  "abi": [
    {
      "inputs": [
        {
          "internalType": "address",
          "name": "initialOwner",
          "type": "address"
        },
        {
          "internalType": "string",
          "name": "name",
          "type": "string"
        },
        {
          "internalType": "string",
          "name": "symbol",
          "type": "string"
        }
      ],
      "stateMutability": "nonpayable",
      "type": "constructor"
    },
    {
      "inputs": [],
      "name": "ECDSAInvalidSignature",
      "type": "error"
    },
    {
      "inputs": [
        {
          "internalType": "uint256",
          "name": "length",
          "type": "uint256"
        }
      ],
      "name": "ECDSAInvalidSignatureLength",
      "type": "error"
    },
    {
      "inputs": [
        {
          "internalType": "bytes32",
          "name": "s",
          "type": "bytes32"
        }
      ],
      "name": "ECDSAInvalidSignatureS",
      "type": "error"
    },
    {
      "inputs": [
        {
          "internalType": "address",
          "name": "spender",
          "type": "address"
        },
        {
          "internalType": "uint256",
          "name": "allowance",
          "type": "uint256"
        },
        {
          "internalType": "uint256",
          "name": "needed",
          "type": "uint256"
        }
      ],
      "name": "ERC20InsufficientAllowance",
      "type": "error"
    },
    {
      "inputs": [
        {
          "internalType": "address",
          "name": "sender",
          "type": "address"
        },
        {
          "internalType": "uint256",
          "name": "balance",
          "type": "uint256"
        },
        {
          "internalType": "uint256",
          "name": "needed",
          "type": "uint256"
        }
      ],
      "name": "ERC20InsufficientBalance",
      "type": "error"
    },
    {
      "inputs": [
        {
          "internalType": "address",
          "name": "approver",
          "type": "address"
        }
      ],
      "name": "ERC20InvalidApprover",
      "type": "error"
    },
    {
      "inputs": [
        {
          "internalType": "address",
          "name": "receiver",
          "type": "address"
        }
      ],
      "name": "ERC20InvalidReceiver",
      "type": "error"
    },
    {
      "inputs": [
        {
          "internalType": "address",
          "name": "sender",
          "type": "address"
        }
      ],
      "name": "ERC20InvalidSender",
      "type": "error"
    },
    {
      "inputs": [
        {
          "internalType": "address",
          "name": "spender",
          "type": "address"
        }
      ],
      "name": "ERC20InvalidSpender",
      "type": "error"
    },
    {
      "inputs": [
        {
          "internalType": "uint256",
          "name": "deadline",
          "type": "uint256"
        }
      ],
      "name": "ERC2612ExpiredSignature",
      "type": "error"
    },
    {
      "inputs": [
        {
          "internalType": "address",
          "name": "signer",
          "type": "address"
        },
        {
          "internalType": "address",
          "name": "owner",
          "type": "address"
        }
      ],
      "name": "ERC2612InvalidSigner",
      "type": "error"
    },
    {
      "inputs": [],
      "name": "EnforcedPause",
      "type": "error"
    },
    {
      "inputs": [],
      "name": "ExpectedPause",
      "type": "error"
    },
    {
      "inputs": [
        {
          "internalType": "address",
          "name": "account",
          "type": "address"
        },
        {
          "internalType": "uint256",
          "name": "currentNonce",
          "type": "uint256"
        }
      ],
      "name": "InvalidAccountNonce",
      "type": "error"
    },
    {
      "inputs": [],
      "name": "InvalidShortString",
      "type": "error"
    },
    {
      "inputs": [
        {
          "internalType": "address",
          "name": "owner",
          "type": "address"
        }
      ],
      "name": "OwnableInvalidOwner",
      "type": "error"
    },
    {
      "inputs": [
        {
          "internalType": "address",
          "name": "account",
          "type": "address"
        }
      ],
      "name": "OwnableUnauthorizedAccount",
      "type": "error"
    },
    {
      "inputs": [
        {
          "internalType": "string",
          "name": "str",
          "type": "string"
        }
      ],
      "name": "StringTooLong",
      "type": "error"
    },
    {
      "anonymous": false,
      "inputs": [
        {
          "indexed": true,
          "internalType": "address",
          "name": "owner",
          "type": "address"
        },
        {
          "indexed": true,
          "internalType": "address",
          "name": "spender",
          "type": "address"
        },
        {
          "indexed": false,
          "internalType": "uint256",
          "name": "value",
          "type": "uint256"
        }
      ],
      "name": "Approval",
      "type": "event"
    },
    {
      "anonymous": false,
      "inputs": [
        {
          "indexed": true,
          "internalType": "address",
          "name": "user",
          "type": "address"
        },
        {
          "indexed": false,
          "internalType": "uint256",
          "name": "amount",
          "type": "uint256"
        },
        {
          "indexed": false,
          "internalType": "string",
          "name": "purpose",
          "type": "string"
        }
      ],
      "name": "CreditIssued",
      "type": "event"
    },
    {
      "anonymous": false,
      "inputs": [],
      "name": "EIP712DomainChanged",
      "type": "event"
    },
    {
      "anonymous": false,
      "inputs": [
        {
          "indexed": true,
          "internalType": "bytes32",
          "name": "merchantId",
          "type": "bytes32"
        },
        {
          "indexed": true,
          "internalType": "address",
          "name": "wallet",
          "type": "address"
        }
      ],
      "name": "MerchantWalletUpdated",
      "type": "event"
    },
    {
      "anonymous": false,
      "inputs": [
        {
          "indexed": true,
          "internalType": "address",
          "name": "user",
          "type": "address"
        },
        {
          "indexed": false,
          "internalType": "uint256",
          "name": "amount",
          "type": "uint256"
        }
      ],
      "name": "Minted",
      "type": "event"
    },
    {
      "anonymous": false,
      "inputs": [
        {
          "indexed": true,
          "internalType": "address",
          "name": "previousOwner",
          "type": "address"
        },
        {
          "indexed": true,
          "internalType": "address",
          "name": "newOwner",
          "type": "address"
        }
      ],
      "name": "OwnershipTransferred",
      "type": "event"
    },
    {
      "anonymous": false,
      "inputs": [
        {
          "indexed": false,
          "internalType": "address",
          "name": "account",
          "type": "address"
        }
      ],
      "name": "Paused",
      "type": "event"
    },
    {
      "anonymous": false,
      "inputs": [
        {
          "indexed": true,
          "internalType": "address",
          "name": "user",
          "type": "address"
        },
        {
          "indexed": true,
          "internalType": "bytes32",
          "name": "merchantId",
          "type": "bytes32"
        },
        {
          "indexed": false,
          "internalType": "uint256",
          "name": "amount",
          "type": "uint256"
        }
      ],
      "name": "PaymentBurned",
      "type": "event"
    },
    {
      "anonymous": false,
      "inputs": [
        {
          "indexed": true,
          "internalType": "address",
          "name": "from",
          "type": "address"
        },
        {
          "indexed": true,
          "internalType": "address",
          "name": "to",
          "type": "address"
        },
        {
          "indexed": false,
          "internalType": "uint256",
          "name": "value",
          "type": "uint256"
        }
      ],
      "name": "Transfer",
      "type": "event"
    },
    {
      "anonymous": false,
      "inputs": [
        {
          "indexed": false,
          "internalType": "address",
          "name": "account",
          "type": "address"
        }
      ],
      "name": "Unpaused",
      "type": "event"
    },
    {
      "inputs": [],
      "name": "DOMAIN_SEPARATOR",
      "outputs": [
        {
          "internalType": "bytes32",
          "name": "",
          "type": "bytes32"
        }
      ],
      "stateMutability": "view",
      "type": "function"
    },
    {
      "inputs": [],
      "name": "MAX_SUPPLY",
      "outputs": [
        {
          "internalType": "uint256",
          "name": "",
          "type": "uint256"
        }
      ],
      "stateMutability": "view",
      "type": "function"
    },
    {
      "inputs": [
        {
          "internalType": "address",
          "name": "owner",
          "type": "address"
        },
        {
          "internalType": "address",
          "name": "spender",
          "type": "address"
        }
      ],
      "name": "allowance",
      "outputs": [
        {
          "internalType": "uint256",
          "name": "",
          "type": "uint256"
        }
      ],
      "stateMutability": "view",
      "type": "function"
    },
    {
      "inputs": [
        {
          "internalType": "address",
          "name": "spender",
          "type": "address"
        },
        {
          "internalType": "uint256",
          "name": "value",
          "type": "uint256"
        }
      ],
      "name": "approve",
      "outputs": [
        {
          "internalType": "bool",
          "name": "",
          "type": "bool"
        }
      ],
      "stateMutability": "nonpayable",
      "type": "function"
    },
    {
      "inputs": [
        {
          "internalType": "address",
          "name": "user",
          "type": "address"
        },
        {
          "internalType": "bytes32",
          "name": "merchantId",
          "type": "bytes32"
        },
        {
          "internalType": "uint256",
          "name": "amount",
          "type": "uint256"
        },
        {
          "internalType": "uint256",
          "name": "deadline",
          "type": "uint256"
        },
        {
          "internalType": "uint8",
          "name": "v",
          "type": "uint8"
        },
        {
          "internalType": "bytes32",
          "name": "r",
          "type": "bytes32"
        },
        {
          "internalType": "bytes32",
          "name": "s",
          "type": "bytes32"
        }
      ],
      "name": "approveAndBurn",
      "outputs": [],
      "stateMutability": "nonpayable",
      "type": "function"
    },
    {
      "inputs": [
        {
          "internalType": "address",
          "name": "account",
          "type": "address"
        }
      ],
      "name": "balanceOf",
      "outputs": [
        {
          "internalType": "uint256",
          "name": "",
          "type": "uint256"
        }
      ],
      "stateMutability": "view",
      "type": "function"
    },
    {
      "inputs": [
        {
          "internalType": "address",
          "name": "from",
          "type": "address"
        },
        {
          "internalType": "bytes32",
          "name": "merchantId",
          "type": "bytes32"
        },
        {
          "internalType": "uint256",
          "name": "amount",
          "type": "uint256"
        }
      ],
      "name": "burnForPOS",
      "outputs": [],
      "stateMutability": "nonpayable",
      "type": "function"
    },
    {
      "inputs": [],
      "name": "decimals",
      "outputs": [
        {
          "internalType": "uint8",
          "name": "",
          "type": "uint8"
        }
      ],
      "stateMutability": "view",
      "type": "function"
    },
    {
      "inputs": [],
      "name": "eip712Domain",
      "outputs": [
        {
          "internalType": "bytes1",
          "name": "fields",
          "type": "bytes1"
        },
        {
          "internalType": "string",
          "name": "name",
          "type": "string"
        },
        {
          "internalType": "string",
          "name": "version",
          "type": "string"
        },
        {
          "internalType": "uint256",
          "name": "chainId",
          "type": "uint256"
        },
        {
          "internalType": "address",
          "name": "verifyingContract",
          "type": "address"
        },
        {
          "internalType": "bytes32",
          "name": "salt",
          "type": "bytes32"
        },
        {
          "internalType": "uint256[]",
          "name": "extensions",
          "type": "uint256[]"
        }
      ],
      "stateMutability": "view",
      "type": "function"
    },
    {
      "inputs": [
        {
          "internalType": "bytes32",
          "name": "",
          "type": "bytes32"
        }
      ],
      "name": "merchantWallets",
      "outputs": [
        {
          "internalType": "address",
          "name": "",
          "type": "address"
        }
      ],
      "stateMutability": "view",
      "type": "function"
    },
    {
      "inputs": [],
      "name": "name",
      "outputs": [
        {
          "internalType": "string",
          "name": "",
          "type": "string"
        }
      ],
      "stateMutability": "view",
      "type": "function"
    },
    {
      "inputs": [
        {
          "internalType": "address",
          "name": "owner",
          "type": "address"
        }
      ],
      "name": "nonces",
      "outputs": [
        {
          "internalType": "uint256",
          "name": "",
          "type": "uint256"
        }
      ],
      "stateMutability": "view",
      "type": "function"
    },
    {
      "inputs": [],
      "name": "owner",
      "outputs": [
        {
          "internalType": "address",
          "name": "",
          "type": "address"
        }
      ],
      "stateMutability": "view",
      "type": "function"
    },
    {
      "inputs": [
        {
          "internalType": "address",
          "name": "to",
          "type": "address"
        },
        {
          "internalType": "uint256",
          "name": "amount",
          "type": "uint256"
        }
      ],
      "name": "ownerWithdraw",
      "outputs": [],
      "stateMutability": "nonpayable",
      "type": "function"
    },
    {
      "inputs": [],
      "name": "pause",
      "outputs": [],
      "stateMutability": "nonpayable",
      "type": "function"
    },
    {
      "inputs": [],
      "name": "paused",
      "outputs": [
        {
          "internalType": "bool",
          "name": "",
          "type": "bool"
        }
      ],
      "stateMutability": "view",
      "type": "function"
    },
    {
      "inputs": [
        {
          "internalType": "address",
          "name": "owner",
          "type": "address"
        },
        {
          "internalType": "address",
          "name": "spender",
          "type": "address"
        },
        {
          "internalType": "uint256",
          "name": "value",
          "type": "uint256"
        },
        {
          "internalType": "uint256",
          "name": "deadline",
          "type": "uint256"
        },
        {
          "internalType": "uint8",
          "name": "v",
          "type": "uint8"
        },
        {
          "internalType": "bytes32",
          "name": "r",
          "type": "bytes32"
        },
        {
          "internalType": "bytes32",
          "name": "s",
          "type": "bytes32"
        }
      ],
      "name": "permit",
      "outputs": [],
      "stateMutability": "nonpayable",
      "type": "function"
    },
    {
      "inputs": [],
      "name": "relayerAddress",
      "outputs": [
        {
          "internalType": "address",
          "name": "",
          "type": "address"
        }
      ],
      "stateMutability": "view",
      "type": "function"
    },
    {
      "inputs": [],
      "name": "renounceOwnership",
      "outputs": [],
      "stateMutability": "nonpayable",
      "type": "function"
    },
    {
      "inputs": [
        {
          "internalType": "bytes32",
          "name": "merchantId",
          "type": "bytes32"
        },
        {
          "internalType": "address",
          "name": "wallet",
          "type": "address"
        }
      ],
      "name": "setMerchantWallet",
      "outputs": [],
      "stateMutability": "nonpayable",
      "type": "function"
    },
    {
      "inputs": [
        {
          "internalType": "address",
          "name": "_relayerAddress",
          "type": "address"
        }
      ],
      "name": "setRelayerAddress",
      "outputs": [],
      "stateMutability": "nonpayable",
      "type": "function"
    },
    {
      "inputs": [],
      "name": "symbol",
      "outputs": [
        {
          "internalType": "string",
          "name": "",
          "type": "string"
        }
      ],
      "stateMutability": "view",
      "type": "function"
    },
    {
      "inputs": [],
      "name": "totalSupply",
      "outputs": [
        {
          "internalType": "uint256",
          "name": "",
          "type": "uint256"
        }
      ],
      "stateMutability": "view",
      "type": "function"
    },
    {
      "inputs": [
        {
          "internalType": "address",
          "name": "to",
          "type": "address"
        },
        {
          "internalType": "uint256",
          "name": "value",
          "type": "uint256"
        }
      ],
      "name": "transfer",
      "outputs": [
        {
          "internalType": "bool",
          "name": "",
          "type": "bool"
        }
      ],
      "stateMutability": "nonpayable",
      "type": "function"
    },
    {
      "inputs": [
        {
          "internalType": "address",
          "name": "from",
          "type": "address"
        },
        {
          "internalType": "address",
          "name": "to",
          "type": "address"
        },
        {
          "internalType": "uint256",
          "name": "value",
          "type": "uint256"
        }
      ],
      "name": "transferFrom",
      "outputs": [
        {
          "internalType": "bool",
          "name": "",
          "type": "bool"
        }
      ],
      "stateMutability": "nonpayable",
      "type": "function"
    },
    {
      "inputs": [
        {
          "internalType": "address",
          "name": "newOwner",
          "type": "address"
        }
      ],
      "name": "transferOwnership",
      "outputs": [],
      "stateMutability": "nonpayable",
      "type": "function"
    },
    {
      "inputs": [],
      "name": "unpause",
      "outputs": [],
      "stateMutability": "nonpayable",
      "type": "function"
    }
  ],
  "bytecode": "0x6101606040523480156200001257600080fd5b5060405162003c8f38038062003c8f833981810160405281019062000038919062000951565b81806040518060400160405280600181526020017f3100000000000000000000000000000000000000000000000000000000000000815250858585816003908162000084919062000c36565b50806004908162000096919062000c36565b505050600073ffffffffffffffffffffffffffffffffffffffff168173ffffffffffffffffffffffffffffffffffffffff16036200010e5760006040517f1e4fbdf700000000000000000000000000000000000000000000000000000000815260040162000105919062000d2e565b60405180910390fd5b6200011f81620002aa60201b60201c565b50620001366006836200037060201b90919060201c565b6101208181525050620001546007826200037060201b90919060201c565b6101408181525050818051906020012060e08181525050808051906020012061010081815250504660a0818152505062000193620003c860201b60201c565b608081815250503073ffffffffffffffffffffffffffffffffffffffff1660c08173ffffffffffffffffffffffffffffffffffffffff1681525050505050620001ed836934f086f3b33b684000006200042560201b60201c565b8273ffffffffffffffffffffffffffffffffffffffff167f30385c845b448a36257a6a1716e6ad2e1bc2cbe333cde1e69fe849ad6511adfe6934f086f3b33b684000006040516200023f919062000d5c565b60405180910390a28273ffffffffffffffffffffffffffffffffffffffff167f3d3cd89c70e28646470c17a650c3e9152de8fad384318364a57b116d5ad13e656934f086f3b33b6840000060405162000299919062000dda565b60405180910390a250505062001032565b6000600560009054906101000a900473ffffffffffffffffffffffffffffffffffffffff16905081600560006101000a81548173ffffffffffffffffffffffffffffffffffffffff021916908373ffffffffffffffffffffffffffffffffffffffff1602179055508173ffffffffffffffffffffffffffffffffffffffff168173ffffffffffffffffffffffffffffffffffffffff167f8be0079c531659141344cd1fd0a4f28419497f9722a3daafe3b4186f6b6457e060405160405180910390a35050565b600060208351101562000396576200038e83620004b260201b60201c565b9050620003c2565b82620003a8836200051f60201b60201c565b6000019081620003b9919062000c36565b5060ff60001b90505b92915050565b60007f8b73c3c69bb8fe3d512ecc4cf759cc79239f7b179b0ffacaa9a75d522b39400f60e0516101005146306040516020016200040a95949392919062000e27565b60405160208183030381529060405280519060200120905090565b600073ffffffffffffffffffffffffffffffffffffffff168273ffffffffffffffffffffffffffffffffffffffff16036200049a5760006040517fec442f0500000000000000000000000000000000000000000000000000000000815260040162000491919062000d2e565b60405180910390fd5b620004ae600083836200052960201b60201c565b5050565b600080829050601f815111156200050257826040517f305a27a9000000000000000000000000000000000000000000000000000000008152600401620004f9919062000ec5565b60405180910390fd5b805181620005109062000f1b565b60001c1760001b915050919050565b6000819050919050565b600073ffffffffffffffffffffffffffffffffffffffff168373ffffffffffffffffffffffffffffffffffffffff16036200057f57806002600082825462000572919062000fba565b9250508190555062000655565b60008060008573ffffffffffffffffffffffffffffffffffffffff1673ffffffffffffffffffffffffffffffffffffffff168152602001908152602001600020549050818110156200060e578381836040517fe450d38c000000000000000000000000000000000000000000000000000000008152600401620006059392919062000ff5565b60405180910390fd5b8181036000808673ffffffffffffffffffffffffffffffffffffffff1673ffffffffffffffffffffffffffffffffffffffff16815260200190815260200160002081905550505b600073ffffffffffffffffffffffffffffffffffffffff168273ffffffffffffffffffffffffffffffffffffffff1603620006a05780600260008282540392505081905550620006ed565b806000808473ffffffffffffffffffffffffffffffffffffffff1673ffffffffffffffffffffffffffffffffffffffff168152602001908152602001600020600082825401925050819055505b8173ffffffffffffffffffffffffffffffffffffffff168373ffffffffffffffffffffffffffffffffffffffff167fddf252ad1be2c89b69c2b068fc378daa952ba7f163c4a11628f55a4df523b3ef836040516200074c919062000d5c565b60405180910390a3505050565b6000604051905090565b600080fd5b600080fd5b600073ffffffffffffffffffffffffffffffffffffffff82169050919050565b60006200079a826200076d565b9050919050565b620007ac816200078d565b8114620007b857600080fd5b50565b600081519050620007cc81620007a1565b92915050565b600080fd5b600080fd5b6000601f19601f8301169050919050565b7f4e487b7100000000000000000000000000000000000000000000000000000000600052604160045260246000fd5b6200082782620007dc565b810181811067ffffffffffffffff82111715620008495762000848620007ed565b5b80604052505050565b60006200085e62000759565b90506200086c82826200081c565b919050565b600067ffffffffffffffff8211156200088f576200088e620007ed565b5b6200089a82620007dc565b9050602081019050919050565b60005b83811015620008c7578082015181840152602081019050620008aa565b60008484015250505050565b6000620008ea620008e48462000871565b62000852565b905082815260208101848484011115620009095762000908620007d7565b5b62000916848285620008a7565b509392505050565b600082601f830112620009365762000935620007d2565b5b815162000948848260208601620008d3565b91505092915050565b6000806000606084860312156200096d576200096c62000763565b5b60006200097d86828701620007bb565b935050602084015167ffffffffffffffff811115620009a157620009a062000768565b5b620009af868287016200091e565b925050604084015167ffffffffffffffff811115620009d357620009d262000768565b5b620009e1868287016200091e565b9150509250925092565b600081519050919050565b7f4e487b7100000000000000000000000000000000000000000000000000000000600052602260045260246000fd5b6000600282049050600182168062000a3e57607f821691505b60208210810362000a545762000a53620009f6565b5b50919050565b60008190508160005260206000209050919050565b60006020601f8301049050919050565b600082821b905092915050565b60006008830262000abe7fffffffffffffffffffffffffffffffffffffffffffffffffffffffffffffffff8262000a7f565b62000aca868362000a7f565b95508019841693508086168417925050509392505050565b6000819050919050565b6000819050919050565b600062000b1762000b1162000b0b8462000ae2565b62000aec565b62000ae2565b9050919050565b6000819050919050565b62000b338362000af6565b62000b4b62000b428262000b1e565b84845462000a8c565b825550505050565b600090565b62000b6262000b53565b62000b6f81848462000b28565b505050565b5b8181101562000b975762000b8b60008262000b58565b60018101905062000b75565b5050565b601f82111562000be65762000bb08162000a5a565b62000bbb8462000a6f565b8101602085101562000bcb578190505b62000be362000bda8562000a6f565b83018262000b74565b50505b505050565b600082821c905092915050565b600062000c0b6000198460080262000beb565b1980831691505092915050565b600062000c26838362000bf8565b9150826002028217905092915050565b62000c4182620009eb565b67ffffffffffffffff81111562000c5d5762000c5c620007ed565b5b62000c69825462000a25565b62000c7682828562000b9b565b600060209050601f83116001811462000cae576000841562000c99578287015190505b62000ca5858262000c18565b86555062000d15565b601f19841662000cbe8662000a5a565b60005b8281101562000ce85784890151825560018201915060208501945060208101905062000cc1565b8683101562000d08578489015162000d04601f89168262000bf8565b8355505b6001600288020188555050505b505050505050565b62000d28816200078d565b82525050565b600060208201905062000d45600083018462000d1d565b92915050565b62000d568162000ae2565b82525050565b600060208201905062000d73600083018462000d4b565b92915050565b600082825260208201905092915050565b7f496e697469616c204d696e7420746f204f776e65720000000000000000000000600082015250565b600062000dc260158362000d79565b915062000dcf8262000d8a565b602082019050919050565b600060408201905062000df1600083018462000d4b565b818103602083015262000e048162000db3565b905092915050565b6000819050919050565b62000e218162000e0c565b82525050565b600060a08201905062000e3e600083018862000e16565b62000e4d602083018762000e16565b62000e5c604083018662000e16565b62000e6b606083018562000d4b565b62000e7a608083018462000d1d565b9695505050505050565b600062000e9182620009eb565b62000e9d818562000d79565b935062000eaf818560208601620008a7565b62000eba81620007dc565b840191505092915050565b6000602082019050818103600083015262000ee1818462000e84565b905092915050565b600081519050919050565b6000819050602082019050919050565b600062000f12825162000e0c565b80915050919050565b600062000f288262000ee9565b8262000f348462000ef4565b905062000f418162000f04565b9250602082101562000f845762000f7f7fffffffffffffffffffffffffffffffffffffffffffffffffffffffffffffffff8360200360080262000a7f565b831692505b5050919050565b7f4e487b7100000000000000000000000000000000000000000000000000000000600052601160045260246000fd5b600062000fc78262000ae2565b915062000fd48362000ae2565b925082820190508082111562000fef5762000fee62000f8b565b5b92915050565b60006060820190506200100c600083018662000d1d565b6200101b602083018562000d4b565b6200102a604083018462000d4b565b949350505050565b60805160a05160c05160e051610100516101205161014051612c026200108d60003960006115d30152600061159801526000611ae801526000611ac7015260006111bd015260006112130152600061123c0152612c026000f3fe608060405234801561001057600080fd5b50600436106101a95760003560e01c806370a08231116100f95780639e487e2c11610097578063d505accf11610071578063d505accf1461048e578063d9c88e14146104aa578063dd62ed3e146104c6578063f2fde38b146104f6576101a9565b80639e487e2c14610426578063a9059cbb14610442578063d384a0d714610472576101a9565b80638456cb59116100d35780638456cb59146103bc57806384b0196e146103c65780638da5cb5b146103ea57806395d89b4114610408576101a9565b806370a0823114610352578063715018a6146103825780637ecebe001461038c576101a9565b8063313ce567116101665780633f4ba83a116101405780633f4ba83a146102f25780634716e5bd146102fc5780635572f42e146103185780635c975abb14610334576101a9565b8063313ce5671461029857806332cb6b0c146102b65780633644e515146102d4576101a9565b806306fdde03146101ae578063095ea7b3146101cc57806309b783f8146101fc57806318160ddd1461022c57806318a7cca81461024a57806323b872dd14610268575b600080fd5b6101b6610512565b6040516101c39190612015565b60405180910390f35b6101e660048036038101906101e191906120d0565b6105a4565b6040516101f3919061212b565b60405180910390f35b6102166004803603810190610211919061217c565b6105c7565b60405161022391906121b8565b60405180910390f35b6102346105fa565b60405161024191906121e2565b60405180910390f35b610252610604565b60405161025f91906121b8565b60405180910390f35b610282600480360381019061027d91906121fd565b61062a565b60405161028f919061212b565b60405180910390f35b6102a0610659565b6040516102ad919061226c565b60405180910390f35b6102be610662565b6040516102cb91906121e2565b60405180910390f35b6102dc610670565b6040516102e99190612296565b60405180910390f35b6102fa61067f565b005b610316600480360381019061031191906122b1565b610691565b005b610332600480360381019061032d91906122f1565b6107a2565b005b61033c610945565b604051610349919061212b565b60405180910390f35b61036c60048036038101906103679190612344565b61095c565b60405161037991906121e2565b60405180910390f35b61038a6109a4565b005b6103a660048036038101906103a19190612344565b6109b8565b6040516103b391906121e2565b60405180910390f35b6103c46109ca565b005b6103ce6109dc565b6040516103e1979695949392919061246a565b60405180910390f35b6103f2610a86565b6040516103ff91906121b8565b60405180910390f35b610410610ab0565b60405161041d9190612015565b60405180910390f35b610440600480360381019061043b919061251a565b610b42565b005b61045c600480360381019061045791906120d0565b610c5d565b604051610469919061212b565b60405180910390f35b61048c60048036038101906104879190612344565b610c80565b005b6104a860048036038101906104a391906125bc565b610d3b565b005b6104c460048036038101906104bf91906120d0565b610e83565b005b6104e060048036038101906104db919061265e565b610f09565b6040516104ed91906121e2565b60405180910390f35b610510600480360381019061050b9190612344565b610f90565b005b606060038054610521906126cd565b80601f016020809104026020016040519081016040528092919081815260200182805461054d906126cd565b801561059a5780601f1061056f5761010080835404028352916020019161059a565b820191906000526020600020905b81548152906001019060200180831161057d57829003601f168201915b5050505050905090565b6000806105af611016565b90506105bc81858561101e565b600191505092915050565b60096020528060005260406000206000915054906101000a900473ffffffffffffffffffffffffffffffffffffffff1681565b6000600254905090565b600a60009054906101000a900473ffffffffffffffffffffffffffffffffffffffff1681565b600080610635611016565b9050610642858285611030565b61064d8585856110c5565b60019150509392505050565b60006012905090565b6934f086f3b33b6840000081565b600061067a6111b9565b905090565b610687611270565b61068f6112f7565b565b610699611270565b600073ffffffffffffffffffffffffffffffffffffffff168173ffffffffffffffffffffffffffffffffffffffff1603610708576040517f08c379a00000000000000000000000000000000000000000000000000000000081526004016106ff90612770565b60405180910390fd5b806009600084815260200190815260200160002060006101000a81548173ffffffffffffffffffffffffffffffffffffffff021916908373ffffffffffffffffffffffffffffffffffffffff1602179055508073ffffffffffffffffffffffffffffffffffffffff16827fb37c62dd4c082d400cbe1e6f8df2a6585f27347270f0ebe3aaa359acb227141f60405160405180910390a35050565b600a60009054906101000a900473ffffffffffffffffffffffffffffffffffffffff1673ffffffffffffffffffffffffffffffffffffffff163373ffffffffffffffffffffffffffffffffffffffff1614610832576040517f08c379a000000000000000000000000000000000000000000000000000000000815260040161082990612802565b60405180910390fd5b61083a61135a565b600073ffffffffffffffffffffffffffffffffffffffff166009600084815260200190815260200160002060009054906101000a900473ffffffffffffffffffffffffffffffffffffffff1673ffffffffffffffffffffffffffffffffffffffff16036108dc576040517f08c379a00000000000000000000000000000000000000000000000000000000081526004016108d39061286e565b60405180910390fd5b6108e7833383611030565b6108f1838261139b565b818373ffffffffffffffffffffffffffffffffffffffff167f26d64222e17f870b2e3f9c470ff10cc3991276b8e2dea26351e571b5d8899b398360405161093891906121e2565b60405180910390a3505050565b6000600560149054906101000a900460ff16905090565b60008060008373ffffffffffffffffffffffffffffffffffffffff1673ffffffffffffffffffffffffffffffffffffffff168152602001908152602001600020549050919050565b6109ac611270565b6109b6600061141d565b565b60006109c3826114e3565b9050919050565b6109d2611270565b6109da61152c565b565b6000606080600080600060606109f061158f565b6109f86115ca565b46306000801b600067ffffffffffffffff811115610a1957610a1861288e565b5b604051908082528060200260200182016040528015610a475781602001602082028036833780820191505090505b507f0f00000000000000000000000000000000000000000000000000000000000000959493929190965096509650965096509650965090919293949596565b6000600560009054906101000a900473ffffffffffffffffffffffffffffffffffffffff16905090565b606060048054610abf906126cd565b80601f0160208091040260200160405190810160405280929190818152602001828054610aeb906126cd565b8015610b385780601f10610b0d57610100808354040283529160200191610b38565b820191906000526020600020905b815481529060010190602001808311610b1b57829003601f168201915b5050505050905090565b610b4a61135a565b600073ffffffffffffffffffffffffffffffffffffffff166009600088815260200190815260200160002060009054906101000a900473ffffffffffffffffffffffffffffffffffffffff1673ffffffffffffffffffffffffffffffffffffffff1603610bec576040517f08c379a0000000000000000000000000000000000000000000000000000000008152600401610be39061286e565b60405180910390fd5b610bfb87338787878787610d3b565b610c05878661139b565b858773ffffffffffffffffffffffffffffffffffffffff167f26d64222e17f870b2e3f9c470ff10cc3991276b8e2dea26351e571b5d8899b3987604051610c4c91906121e2565b60405180910390a350505050505050565b600080610c68611016565b9050610c758185856110c5565b600191505092915050565b610c88611270565b600073ffffffffffffffffffffffffffffffffffffffff168173ffffffffffffffffffffffffffffffffffffffff1603610cf7576040517f08c379a0000000000000000000000000000000000000000000000000000000008152600401610cee9061292f565b60405180910390fd5b80600a60006101000a81548173ffffffffffffffffffffffffffffffffffffffff021916908373ffffffffffffffffffffffffffffffffffffffff16021790555050565b83421115610d8057836040517f62791302000000000000000000000000000000000000000000000000000000008152600401610d7791906121e2565b60405180910390fd5b60007f6e71edae12b1b97f4d1f60370fef10105fa2faae0126114a169c64845d6126c9888888610daf8c611605565b89604051602001610dc59695949392919061294f565b6040516020818303038152906040528051906020012090506000610de88261165c565b90506000610df882878787611676565b90508973ffffffffffffffffffffffffffffffffffffffff168173ffffffffffffffffffffffffffffffffffffffff1614610e6c57808a6040517f4b800e46000000000000000000000000000000000000000000000000000000008152600401610e639291906129b0565b60405180910390fd5b610e778a8a8a61101e565b50505050505050505050565b610e8b611270565b600073ffffffffffffffffffffffffffffffffffffffff168273ffffffffffffffffffffffffffffffffffffffff1603610efa576040517f08c379a0000000000000000000000000000000000000000000000000000000008152600401610ef190612a4b565b60405180910390fd5b610f053083836110c5565b5050565b6000600160008473ffffffffffffffffffffffffffffffffffffffff1673ffffffffffffffffffffffffffffffffffffffff16815260200190815260200160002060008373ffffffffffffffffffffffffffffffffffffffff1673ffffffffffffffffffffffffffffffffffffffff16815260200190815260200160002054905092915050565b610f98611270565b600073ffffffffffffffffffffffffffffffffffffffff168173ffffffffffffffffffffffffffffffffffffffff160361100a5760006040517f1e4fbdf700000000000000000000000000000000000000000000000000000000815260040161100191906121b8565b60405180910390fd5b6110138161141d565b50565b600033905090565b61102b83838360016116a6565b505050565b600061103c8484610f09565b90507fffffffffffffffffffffffffffffffffffffffffffffffffffffffffffffffff8110156110bf57818110156110af578281836040517ffb8f41b20000000000000000000000000000000000000000000000000000000081526004016110a693929190612a6b565b60405180910390fd5b6110be848484840360006116a6565b5b50505050565b600073ffffffffffffffffffffffffffffffffffffffff168373ffffffffffffffffffffffffffffffffffffffff16036111375760006040517f96c6fd1e00000000000000000000000000000000000000000000000000000000815260040161112e91906121b8565b60405180910390fd5b600073ffffffffffffffffffffffffffffffffffffffff168273ffffffffffffffffffffffffffffffffffffffff16036111a95760006040517fec442f050000000000000000000000000000000000000000000000000000000081526004016111a091906121b8565b60405180910390fd5b6111b483838361187d565b505050565b60007f000000000000000000000000000000000000000000000000000000000000000073ffffffffffffffffffffffffffffffffffffffff163073ffffffffffffffffffffffffffffffffffffffff1614801561123557507f000000000000000000000000000000000000000000000000000000000000000046145b15611262577f0000000000000000000000000000000000000000000000000000000000000000905061126d565b61126a611aa2565b90505b90565b611278611016565b73ffffffffffffffffffffffffffffffffffffffff16611296610a86565b73ffffffffffffffffffffffffffffffffffffffff16146112f5576112b9611016565b6040517f118cdaa70000000000000000000000000000000000000000000000000000000081526004016112ec91906121b8565b60405180910390fd5b565b6112ff611b38565b6000600560146101000a81548160ff0219169083151502179055507f5db9ee0a495bf2e6ff9c91a7834c1ba4fdd244a5e8aa4e537bd38aeae4b073aa611343611016565b60405161135091906121b8565b60405180910390a1565b611362610945565b15611399576040517fd93c066500000000000000000000000000000000000000000000000000000000815260040160405180910390fd5b565b600073ffffffffffffffffffffffffffffffffffffffff168273ffffffffffffffffffffffffffffffffffffffff160361140d5760006040517f96c6fd1e00000000000000000000000000000000000000000000000000000000815260040161140491906121b8565b60405180910390fd5b6114198260008361187d565b5050565b6000600560009054906101000a900473ffffffffffffffffffffffffffffffffffffffff16905081600560006101000a81548173ffffffffffffffffffffffffffffffffffffffff021916908373ffffffffffffffffffffffffffffffffffffffff1602179055508173ffffffffffffffffffffffffffffffffffffffff168173ffffffffffffffffffffffffffffffffffffffff167f8be0079c531659141344cd1fd0a4f28419497f9722a3daafe3b4186f6b6457e060405160405180910390a35050565b6000600860008373ffffffffffffffffffffffffffffffffffffffff1673ffffffffffffffffffffffffffffffffffffffff168152602001908152602001600020549050919050565b61153461135a565b6001600560146101000a81548160ff0219169083151502179055507f62e78cea01bee320cd4e420270b5ea74000d11b0c9f74754ebdbfc544b05a258611578611016565b60405161158591906121b8565b60405180910390a1565b60606115c560067f0000000000000000000000000000000000000000000000000000000000000000611b7890919063ffffffff16565b905090565b606061160060077f0000000000000000000000000000000000000000000000000000000000000000611b7890919063ffffffff16565b905090565b6000600860008373ffffffffffffffffffffffffffffffffffffffff1673ffffffffffffffffffffffffffffffffffffffff1681526020019081526020016000206000815480929190600101919050559050919050565b600061166f6116696111b9565b83611c28565b9050919050565b60008060008061168888888888611c69565b9250925092506116988282611d5d565b829350505050949350505050565b600073ffffffffffffffffffffffffffffffffffffffff168473ffffffffffffffffffffffffffffffffffffffff16036117185760006040517fe602df0500000000000000000000000000000000000000000000000000000000815260040161170f91906121b8565b60405180910390fd5b600073ffffffffffffffffffffffffffffffffffffffff168373ffffffffffffffffffffffffffffffffffffffff160361178a5760006040517f94280d6200000000000000000000000000000000000000000000000000000000815260040161178191906121b8565b60405180910390fd5b81600160008673ffffffffffffffffffffffffffffffffffffffff1673ffffffffffffffffffffffffffffffffffffffff16815260200190815260200160002060008573ffffffffffffffffffffffffffffffffffffffff1673ffffffffffffffffffffffffffffffffffffffff168152602001908152602001600020819055508015611877578273ffffffffffffffffffffffffffffffffffffffff168473ffffffffffffffffffffffffffffffffffffffff167f8c5be1e5ebec7d5bd14f71427d1e84f3dd0314c0f7b2291e5b200ac8c7c3b9258460405161186e91906121e2565b60405180910390a35b50505050565b600073ffffffffffffffffffffffffffffffffffffffff168373ffffffffffffffffffffffffffffffffffffffff16036118cf5780600260008282546118c39190612ad1565b925050819055506119a2565b60008060008573ffffffffffffffffffffffffffffffffffffffff1673ffffffffffffffffffffffffffffffffffffffff1681526020019081526020016000205490508181101561195b578381836040517fe450d38c00000000000000000000000000000000000000000000000000000000815260040161195293929190612a6b565b60405180910390fd5b8181036000808673ffffffffffffffffffffffffffffffffffffffff1673ffffffffffffffffffffffffffffffffffffffff16815260200190815260200160002081905550505b600073ffffffffffffffffffffffffffffffffffffffff168273ffffffffffffffffffffffffffffffffffffffff16036119eb5780600260008282540392505081905550611a38565b806000808473ffffffffffffffffffffffffffffffffffffffff1673ffffffffffffffffffffffffffffffffffffffff168152602001908152602001600020600082825401925050819055505b8173ffffffffffffffffffffffffffffffffffffffff168373ffffffffffffffffffffffffffffffffffffffff167fddf252ad1be2c89b69c2b068fc378daa952ba7f163c4a11628f55a4df523b3ef83604051611a9591906121e2565b60405180910390a3505050565b60007f8b73c3c69bb8fe3d512ecc4cf759cc79239f7b179b0ffacaa9a75d522b39400f7f00000000000000000000000000000000000000000000000000000000000000007f00000000000000000000000000000000000000000000000000000000000000004630604051602001611b1d959493929190612b05565b60405160208183030381529060405280519060200120905090565b611b40610945565b611b76576040517f8dfc202b00000000000000000000000000000000000000000000000000000000815260040160405180910390fd5b565b606060ff60001b8314611b9557611b8e83611ec1565b9050611c22565b818054611ba1906126cd565b80601f0160208091040260200160405190810160405280929190818152602001828054611bcd906126cd565b8015611c1a5780601f10611bef57610100808354040283529160200191611c1a565b820191906000526020600020905b815481529060010190602001808311611bfd57829003601f168201915b505050505090505b92915050565b60006040517f190100000000000000000000000000000000000000000000000000000000000081528360028201528260228201526042812091505092915050565b60008060007f7fffffffffffffffffffffffffffffff5d576e7357a4501ddfe92f46681b20a08460001c1115611ca9576000600385925092509250611d53565b600060018888888860405160008152602001604052604051611cce9493929190612b58565b6020604051602081039080840390855afa158015611cf0573d6000803e3d6000fd5b505050602060405103519050600073ffffffffffffffffffffffffffffffffffffffff168173ffffffffffffffffffffffffffffffffffffffff1603611d4457600060016000801b93509350935050611d53565b8060008060001b935093509350505b9450945094915050565b60006003811115611d7157611d70612b9d565b5b826003811115611d8457611d83612b9d565b5b0315611ebd5760016003811115611d9e57611d9d612b9d565b5b826003811115611db157611db0612b9d565b5b03611de8576040517ff645eedf00000000000000000000000000000000000000000000000000000000815260040160405180910390fd5b60026003811115611dfc57611dfb612b9d565b5b826003811115611e0f57611e0e612b9d565b5b03611e54578060001c6040517ffce698f7000000000000000000000000000000000000000000000000000000008152600401611e4b91906121e2565b60405180910390fd5b600380811115611e6757611e66612b9d565b5b826003811115611e7a57611e79612b9d565b5b03611ebc57806040517fd78bce0c000000000000000000000000000000000000000000000000000000008152600401611eb39190612296565b60405180910390fd5b5b5050565b60606000611ece83611f35565b90506000602067ffffffffffffffff811115611eed57611eec61288e565b5b6040519080825280601f01601f191660200182016040528015611f1f5781602001600182028036833780820191505090505b5090508181528360208201528092505050919050565b60008060ff8360001c169050601f811115611f7c576040517fb3512b0c00000000000000000000000000000000000000000000000000000000815260040160405180910390fd5b80915050919050565b600081519050919050565b600082825260208201905092915050565b60005b83811015611fbf578082015181840152602081019050611fa4565b60008484015250505050565b6000601f19601f8301169050919050565b6000611fe782611f85565b611ff18185611f90565b9350612001818560208601611fa1565b61200a81611fcb565b840191505092915050565b6000602082019050818103600083015261202f8184611fdc565b905092915050565b600080fd5b600073ffffffffffffffffffffffffffffffffffffffff82169050919050565b60006120678261203c565b9050919050565b6120778161205c565b811461208257600080fd5b50565b6000813590506120948161206e565b92915050565b6000819050919050565b6120ad8161209a565b81146120b857600080fd5b50565b6000813590506120ca816120a4565b92915050565b600080604083850312156120e7576120e6612037565b5b60006120f585828601612085565b9250506020612106858286016120bb565b9150509250929050565b60008115159050919050565b61212581612110565b82525050565b6000602082019050612140600083018461211c565b92915050565b6000819050919050565b61215981612146565b811461216457600080fd5b50565b60008135905061217681612150565b92915050565b60006020828403121561219257612191612037565b5b60006121a084828501612167565b91505092915050565b6121b28161205c565b82525050565b60006020820190506121cd60008301846121a9565b92915050565b6121dc8161209a565b82525050565b60006020820190506121f760008301846121d3565b92915050565b60008060006060848603121561221657612215612037565b5b600061222486828701612085565b935050602061223586828701612085565b9250506040612246868287016120bb565b9150509250925092565b600060ff82169050919050565b61226681612250565b82525050565b6000602082019050612281600083018461225d565b92915050565b61229081612146565b82525050565b60006020820190506122ab6000830184612287565b92915050565b600080604083850312156122c8576122c7612037565b5b60006122d685828601612167565b92505060206122e785828601612085565b9150509250929050565b60008060006060848603121561230a57612309612037565b5b600061231886828701612085565b935050602061232986828701612167565b925050604061233a868287016120bb565b9150509250925092565b60006020828403121561235a57612359612037565b5b600061236884828501612085565b91505092915050565b60007fff0000000000000000000000000000000000000000000000000000000000000082169050919050565b6123a681612371565b82525050565b600081519050919050565b600082825260208201905092915050565b6000819050602082019050919050565b6123e18161209a565b82525050565b60006123f383836123d8565b60208301905092915050565b6000602082019050919050565b6000612417826123ac565b61242181856123b7565b935061242c836123c8565b8060005b8381101561245d57815161244488826123e7565b975061244f836123ff565b925050600181019050612430565b5085935050505092915050565b600060e08201905061247f600083018a61239d565b81810360208301526124918189611fdc565b905081810360408301526124a58188611fdc565b90506124b460608301876121d3565b6124c160808301866121a9565b6124ce60a0830185612287565b81810360c08301526124e0818461240c565b905098975050505050505050565b6124f781612250565b811461250257600080fd5b50565b600081359050612514816124ee565b92915050565b600080600080600080600060e0888a03121561253957612538612037565b5b60006125478a828b01612085565b97505060206125588a828b01612167565b96505060406125698a828b016120bb565b955050606061257a8a828b016120bb565b945050608061258b8a828b01612505565b93505060a061259c8a828b01612167565b92505060c06125ad8a828b01612167565b91505092959891949750929550565b600080600080600080600060e0888a0312156125db576125da612037565b5b60006125e98a828b01612085565b97505060206125fa8a828b01612085565b965050604061260b8a828b016120bb565b955050606061261c8a828b016120bb565b945050608061262d8a828b01612505565b93505060a061263e8a828b01612167565b92505060c061264f8a828b01612167565b91505092959891949750929550565b6000806040838503121561267557612674612037565b5b600061268385828601612085565b925050602061269485828601612085565b9150509250929050565b7f4e487b7100000000000000000000000000000000000000000000000000000000600052602260045260246000fd5b600060028204905060018216806126e557607f821691505b6020821081036126f8576126f761269e565b5b50919050565b7f534f5652504f533a2043616e6e6f74207365742077616c6c657420746f207a6560008201527f726f206164647265737300000000000000000000000000000000000000000000602082015250565b600061275a602a83611f90565b9150612765826126fe565b604082019050919050565b600060208201905081810360008301526127898161274d565b9050919050565b7f534f5652504f533a2043616c6c6572206973206e6f742074686520617574686f60008201527f72697a65642072656c6179657200000000000000000000000000000000000000602082015250565b60006127ec602d83611f90565b91506127f782612790565b604082019050919050565b6000602082019050818103600083015261281b816127df565b9050919050565b7f534f5652504f533a204d65726368616e74206e6f742072656769737465726564600082015250565b6000612858602083611f90565b915061286382612822565b602082019050919050565b600060208201905081810360008301526128878161284b565b9050919050565b7f4e487b7100000000000000000000000000000000000000000000000000000000600052604160045260246000fd5b7f534f5652504f533a2043616e6e6f74207365742072656c6179657220746f207a60008201527f65726f2061646472657373000000000000000000000000000000000000000000602082015250565b6000612919602b83611f90565b9150612924826128bd565b604082019050919050565b600060208201905081810360008301526129488161290c565b9050919050565b600060c0820190506129646000830189612287565b61297160208301886121a9565b61297e60408301876121a9565b61298b60608301866121d3565b61299860808301856121d3565b6129a560a08301846121d3565b979650505050505050565b60006040820190506129c560008301856121a9565b6129d260208301846121a9565b9392505050565b7f534f5652504f533a2043616e6e6f74207472616e7366657220746f207a65726f60008201527f2061646472657373000000000000000000000000000000000000000000000000602082015250565b6000612a35602883611f90565b9150612a40826129d9565b604082019050919050565b60006020820190508181036000830152612a6481612a28565b9050919050565b6000606082019050612a8060008301866121a9565b612a8d60208301856121d3565b612a9a60408301846121d3565b949350505050565b7f4e487b7100000000000000000000000000000000000000000000000000000000600052601160045260246000fd5b6000612adc8261209a565b9150612ae78361209a565b9250828201905080821115612aff57612afe612aa2565b5b92915050565b600060a082019050612b1a6000830188612287565b612b276020830187612287565b612b346040830186612287565b612b4160608301856121d3565b612b4e60808301846121a9565b9695505050505050565b6000608082019050612b6d6000830187612287565b612b7a602083018661225d565b612b876040830185612287565b612b946060830184612287565b95945050505050565b7f4e487b7100000000000000000000000000000000000000000000000000000000600052602160045260246000fdfea2646970667358221220b6440e38fce9f58fe8eebcd3cde10b46f54870e957be1888d3d25b359450fa5464736f6c63430008140033",
  "linkReferences": {},
  "deployedLinkReferences": {}
}